:020000040800F2
:1000000000500020D1040008310300083303000829
:10001000350300083703000839030008000000001A
:100020000000000000000000000000003B0300088A
:100030003D030008000000003F03000841030008E2
:100040001905000819050008190500081905000818
:100050001905000819050008190500081905000808
:1000600019050008190500081905000819050008F8
:1000700019050008190500081905000819050008E8
:1000800019050008190500081905000819050008D8
:1000900019050008190500081905000819050008C8
:1000A00019050008190500081905000819050008B8
:1000B00019050008190500081905000819050008A8
:1000C0001905000819050008190500081905000898
:1000D0001905000819050008190500081905000888
:1000E000190500081905000819050008000000009E
:1000F0000000000000000000000000000000000000
:0C01000000000000000000005FF808F1A3
:10010C0010B5054C237833B9044B13B10448AFF345
:10011C0000800123237010BD0400002000000000AB
:10012C006405000808B5034B1BB103490348AFF342
:10013C00008008BD000000000800002064050008D5
:10014C0000B500F00700C0F1070CBCF1040F28BF8C
:10015C004FF0040C031D062B0FD9C31E4FF0FF3EAE
:10016C000EFA0CF021EA000199400EFA03FE22EA85
:10017C000E0241EA02005DF804FB0023EEE70000EA
:10018C0000B589B00023039304930593069307935A
:10019C0003F1804303F504339A6942F010029A612B
:1001AC009A6902F010020292029A9A6942F02002B5
:1001BC009A619B6903F020030193019B07484FF45C
:1001CC0000534361064B03930123049302230593CD
:1001DC0003A900F0FFF809B05DF804FB0010014022
:1001EC002000200410B5254A136823F0070343F0C0
:1001FC0002031360214B1B6803F00703022BF9D198
:10020C001F4A136843F4803313601D4B1B6813F4AF
:10021C00003FFAD01A4A536823F47C1343F4E813D2
:10022C005360136843F080731360154B1B6813F015
:10023C00007FFAD0124B5A6822F0F0025A605A68CA
:10024C0022F4E06242F480625A605A6822F46052EE
:10025C005A605A6822F0030242F002025A60084BBC
:10026C005B6803F00C03082BF9D1064C204600F018
:10027C00FDF8204600F020F910BD00BF0020024020
:10028C000010024000A24A0400B583B0204B9A69CA
:10029C0042F001029A619A6902F001020192019AFC
:1002AC00DA6942F08052DA61DB6903F08053009323
:1002BC00009B184CE26822F4E0621204120C164BFC
:1002CC001343E360E06800220F21C0F30220FFF724
:1002DC0037FF0301DBB284F82330104B5A6822F04D
:1002EC00E0625A605A6842F080625A60FFF77AFF07
:1002FC00FFF746FF4FF47A7000F0C8F8084C4FF443
:10030C00005525614FF47A7000F0C0F86561F1E793
:10031C000010024000ED00E00003FA05000001406F
:10032C0000100140FEE7FEE7FEE7FEE7FEE7704740
:10033C00704770477047704710B54FEA116E50F810
:10034C000E3091FAA1FCBCFA8CFC4FEA8C0C0F24F9
:10035C0004FA0CFC23EA0C0391FAA1F1B1FA81F135
:10036C0089008A40134340F80E3010BD10B54FEA97
:10037C00116E50F80E3091FAA1FCBCFA8CFC4FEACD
:10038C008C0C032404FA0CFC23EA0C0391FAA1F163
:10039C00B1FA81F189008A40134340F80E3010BD48
:1003AC0010B54FEA116E50F80E3091FAA1FCBCFA60
:1003BC008CFC4FEA8C0C042404FA0CFC23EA0C038E
:1003CC0091FAA1F1B1FA81F189008A40134340F806
:1003DC000E3010BD2DE9F04180460E460F68C7F374
:1003EC000F2797FAA7F4B4FA84F414E0A4F10803E5
:1003FC004FF001159D4045F080657368082B17D0B0
:10040C00726829464046FFF797FF7368012B1ED090
:10041C00092B1CD0013437FA04F323D00123A34059
:10042C003B42F7D0072CE1D840F20115A540E4E798
:10043C003269D8F80C102B0A21EA152193FAA3F390
:10044C00B3FA83F39A400A43C8F80C20D8E7B26891
:10045C0029464046FFF78AFFF26829464046FFF7D7
:10046C009FFFD7E70020BDE8F0810000064BA3FBFF
:10047C0000239B09013B4FF0E02253610023936161
:10048C0005231361704700BFD34D621082B04FF04B
:10049C00E0231B690193019BB0F1FF3F00D00130B9
:1004AC0038B14FF0E0231B6913F4803FF8D00138CA
:1004BC00F6E702B070470000014B1860704700BFB0
:1004CC00000000200C480D490D4A002302E0D458CE
:1004DC00C4500433C4188C42F9D30A4A0A4C002382
:1004EC0001E013600432A242FBD3FFF724FF00F0BB
:1004FC000FF8FFF7C9FE7047000000200400002031
:10050C00840500080400002020000020FEE7000005
:10051C0070B500260C4D0D4C641BA410A64209D1DD
:10052C0000F01AF800260A4D0A4C641BA410A642CF
:10053C0005D170BD55F8043B98470136EEE755F8E8
:10054C00043B98470136F2E77C0500087C0500085F
:10055C007C05000880050008F8B500BFF8BC08BC95
:10056C009E467047F8B500BFF8BC08BC9E46704765
:04057C003101000841
:040580000D01000861
:040584000024F4005B
:04000005080004D11A
:00000001FF
